:020000040000FA
:1000000011EF78F0D190000C056ED8CF06F0E0CF5C
:1000100007F00001E9CF0DF0EACF08F0E1CF09F0D9
:10002000E2CF0AF0D9CF0BF0DACF0CF0F3CF14F017
:10003000F4CF15F0FACF16F0FBCF17F000C00FF099
:1000400001C010F002C011F003C012F004C013F0A0
:100050009DA02EEF00F09EB02CEF21F00FC000F01D
:1000600010C001F011C002F012C003F013C004F080
:100070000E8E0DC0E9FF08C0EAFF09C0E1FF0AC00B
:10008000E2FF0BC0D9FF0CC0DAFF14C0F3FF15C0AC
:10009000F4FF16C0FAFF17C0FBFF055007C0E0FFD2
:1000A00006C0D8FF1000F2CF0EF0F29EF76AC40F20
:1000B000F66E000EF722000EF86E0900F5500EBE27
:1000C000F28E1200005EBCE2613FDD83C29C7E20A6
:1000D000A3FD1F419DC3217FFCA2401E5F01E3BD24
:1000E0003E6082DC237D9FC1421CFEA0E1BF5D0318
:1000F00080DE3C62BEE0025CDF81633D7C22C09E0C
:100100001D43A1FF4618FAA427799BC584DA3866F7
:10011000E5BB5907DB856739BAE406581947A5FBE3
:100120007826C49A653BD987045AB8E6A7F91B45D7
:10013000C6987A24F8A6441A99C7257B3A6486D8CB
:100140005B05E7B98CD2306EEDB3510F4E10F2ACB7
:100150002F7193CD114FADF3702ECC92D38D6F31A3
:10016000B2EC0E50AFF1134DCE90722C6D33D18F97
:100170000C52B0EE326C8ED0530DEFB1F0AE4C128B
:1001800091CF2D73CA947628ABF517490856B4EA77
:100190006937D58B5709EBB536688AD495CB297763
:1001A000F4AA4816E9B7550B88D6346A2B7597C957
:1001B0004A14F6A8742AC896154BA9F7B6E80A544B
:1001C000D7896B35F76AD80FF66E010EF722000E4D
:1001D000F86E0900F5501200000180028080800353
:1001E000808080808080800480808080808080808B
:1001F000808080808080800580808080808080807A
:1002000080808080808080808080808080808080EE
:100210008080808080808006808080808080808058
:1002200080808080808080808080808080808080CE
:1002300080808080808080808080808080808080BE
:1002400080808080808080808080808080808080AE
:100250008080808080808007808080808080808017
:10026000808080808080808080808080808080808E
:10027000808080808080808080808080808080807E
:10028000808080808080808080808080808080806E
:10029000808080808080808080808080808080805E
:1002A000808080808080808080808080808080804E
:1002B000808080808080808080808080808080803E
:1002C000808080808080808080808080808080802E
:1002D0008080808080808008F76AEC0FF66E020EC6
:1002E000F722000EF86E0900F5501200000101021D
:1002F00001020203010202030203030401020203DA
:1003000002030304020303040304040501020203BD
:1003100002030304020303040304040502030304A9
:100320000304040503040405040505060102020391
:100330000203030402030304030404050203030489
:10034000030404050304040504050506020303046D
:100350000304040503040405040505060304040559
:100360000405050604050506050606070102020345
:100370000203030402030304030404050203030449
:10038000030404050304040504050506020303042D
:100390000304040503040405040505060304040519
:1003A0000405050604050506050606070203030401
:1003B00003040405030404050405050603040405F9
:1003C00004050506040505060506060703040405DD
:1003D00004050506040505060506060704050506C9
:1003E000050606070506060706070708F76A000F51
:1003F000F66E040EF722000EF86E0900F55012009A
:100400000002080A2022282A8082888AA0A2A8AA9C
:10041000F76A240FF66E040EF722000EF86E09003C
:10042000F55012000102050B162C58B1F76A400F67
:10043000F66E040EF722000EF86E0900F550120059
:10044000806440170B060202246A286A2EA62BEF4E
:1004500002F0010E246E2FA830EF02F0010E241AD4
:100460002FAC35EF02F0010E286E2FAE3AEF02F0FE
:10047000010E281A2850241A286A2EAE42EF02F0E4
:10048000010E286ED8902E36D8902F36282C4AEFA1
:1004900002F02F802452D8A42E80246A010135BF97
:1004A00003D0000157EF02F00001010E246E01019C
:1004B00035BB03D0000160EF02F00001010E241AE9
:1004C000010135B903D0000169EF02F00001010E0E
:1004D000241A010135B503D0000172EF02F00001CA
:1004E000010E241AD890010135372450351300012C
:1004F00038EF21F0010135A103D0000185EF02F0B2
:100500000001800E016ED4EF02F0010135A303D08B
:10051000000190EF02F00001C00E016ED4EF02F076
:10052000010135A503D000019BEF02F00001E00EB0
:10053000016ED4EF02F0010135A703D00001A6EF50
:1005400002F00001F00E016ED4EF02F0010135A9B6
:1005500003D00001B1EF02F00001F80E016ED4EFFC
:1005600002F0010135AB03D00001BCEF02F0000145
:10057000FC0E016ED4EF02F0010135AD03D0000195
:10058000C7EF02F00001FE0E016ED4EF02F0010190
:1005900035AF03D00001D2EF02F00001FF0E016E73
:1005A000D4EF02F0FF0E016E3AEF21F0F3C331F009
:1005B000246AF4C320F03152D8B404EF03F0315070
:1005C000CF5CD8A0E8EF02F0000E016E56EF05F008
:1005D0009EA0EFEF02F0000E016E56EF05F0CF5037
:1005E000315C2A08D8B0F9EF02F0FF0E2D6E02EF51
:1005F00003F0CF50315C006ED89000342D6E2D503A
:100600002D242D2611EF03F09EA011EF03F09E90F4
:1006100020062052D8A411EF03F0000E016E56EF11
:1006200005F09E929EA212EF03F0CCCF22F022A002
:100630001CEF03F01EEF03F00000000022A223EFE6
:1006400003F026EF03F000000000000022A42BEFCF
:1006500003F030EF03F00000000000000000000095
:1006600000006B9A6B986B88A4BA6E50A4BA6E5057
:10067000A4AA38EF03F06E50016E01C023F02D2EB6
:1006800044EF03F0DBEF02F0233C49EF03F04BEFC4
:1006900003F038EF03F0A4AA4BEF03F06ECF23F082
:1006A0002D2E55EF03F0DBEF02F02350F2CFF5F3E0
:1006B000F29EE2EC00F00301F5BFF28E016E01C084
:1006C00022F022500708D8B003D0000171EF03F0E8
:1006D000000122C029F0080ED8802254246E78EF41
:1006E00003F022AE76EF03F0DBEF02F04BEF03F006
:1006F000A4AA78EF03F06ECF23F02D2E82EF03F043
:10070000DBEF02F02350FF0AF2CFF6F3F29EE2ECA9
:1007100000F00301F6BFF28E016E01C022F02250FC
:100720000708D8B003D00001A6EF03F00001225063
:1007300024242A6E120E2A5C0C08D8B0A2EF03F013
:10074000DBEF02F0080E2426AFEF03F0080E24269C
:1007500022AEADEF03F0DBEF02F078EF03F0A4AAD6
:10076000AFEF03F06ECF23F02D2EB9EF03F0DBEFE8
:1007700002F02350F2CFF5F3F29EE2EC00F0030119
:10078000F5BFF28E016E01C022F022500708D8B0EA
:1007900003D00001DCEF03F00001225024242B6E73
:1007A0002F0E2B5C0208D8B0D8EF03F0DBEF02F07D
:1007B000080E2426E5EF03F0080E242622AEE3EF10
:1007C00003F0DBEF02F0AFEF03F0A4AAE5EF03F0D4
:1007D0006ECF23F02D2EEFEF03F0DBEF02F023506E
:1007E000FF0AF2CFF6F3F29EE2EC00F00301F6BF4F
:1007F000F28E016E01C022F022500708D8B003D05B
:10080000000112EF04F00001225024242C6E2A5023
:100810002C5CD10F0208D8B010EF04F0DBEF02F02F
:100820001BEF04F0080E242622AE19EF04F0DBEFD4
:1008300002F0E5EF03F02A502A242B242B24A00FEA
:10084000286E2C502824D00F286E030E282628301E
:10085000226E22323F0E22162838246E0F0E2416E6
:100860002838206E20322032030E20162D6A28BE32
:100870002D802450222420242D24006ED890003076
:10088000286E0C0E285E29502826070E28162A509E
:100890002B5CD8802A54266E2852D8B47DEF04F001
:1008A0009E929E929EA252EF04F0CCCF22F022A004
:1008B0005CEF04F05EEF04F00000000022A263EFA2
:1008C00004F066EF04F000000000000022A46BEFCB
:1008D00004F070EF04F000000000000000000000D1
:1008E0000000050E006E002EFED700D000000000B4
:1008F000282E76EF04F0CC6A9E929E929EA27EEF06
:1009000004F0CCCF22F022A088EF04F08AEF04F0AC
:100910000000000022A28FEF04F092EF04F000002C
:100920000000000022A497EF04F09CEF04F0000008
:10093000000000000000000000006B9A6B986B88BC
:10094000A4BA6E50A4BA6E50280E2D6E010E226EFF
:100950002252D8B4BAEF04F0A4AAACEF04F06E505F
:10096000016E01C022F02D2EB8EF04F054EF05F017
:10097000A8EF04F02252D8A4CCEF04F0A4AABEEF52
:1009800004F06E50016E01C022F02D2ECAEF04F06B
:1009900054EF05F0BAEF04F02250F008D8A4DFEFCE
:1009A00004F026500408D8B0DDEF04F0A4AAD6EF76
:1009B00004F06E50016E01C022F0E9EF04F022B89D
:1009C000E9EF04F0A4AAE2EF04F06E50016E01C05A
:1009D00022F0286AA4AAEAEF04F06E50016E01C06A
:1009E00022F02D2EF6EF04F054EF05F0223CFEEF3E
:1009F00004F0D8902836288009EF05F02252D8A4B8
:100A000007EF05F0D8902836289009EF05F0DBEFC6
:100A100002F03F0E281628503208D8A412EF05F035
:100A20002CEF05F0A4AA12EF05F06E50016E01C084
:100A300022F02D2E1EEF05F054EF05F0A4AA1EEFB4
:100A400005F06E50016E01C022F02D2E2AEF05F048
:100A500054EF05F0EAEF04F09E929EA22DEF05F010
:100A6000CCCF22F022A037EF05F039EF05F00000DF
:100A7000000022A23EEF05F041EF05F0000000006B
:100A8000000022A446EF05F04BEF05F00000000047
:100A900000000000000000000A0ECF6E220ECE6E95
:100AA000010E016E56EF05F0DBEF02F0000CCF50A7
:100AB0000008D8B060EF05F0000E016EF4EF05F00D
:100AC000010E0301F56F0001F5C331F09E90315026
:100AD000FD08D8B06EEF05F0FD0E316E3150CF5CE1
:100AE000D8A06EEF05F0CEA673EF05F0CECF22F0C2
:100AF00022A07DEF05F07FEF05F00000000022A2AC
:100B000084EF05F087EF05F000000000000022A44C
:100B10008CEF05F091EF05F00000000000000000F0
:100B200000000000CC6A9E929EA294EF05F0CCCF0C
:100B300022F022A09EEF05F0A0EF05F000000000DB
:100B400022A2A5EF05F0A8EF05F0000000000000CC
:100B500022A4ADEF05F0B2EF05F0000000000000A8
:100B6000000000000000E30E326EC950206E3250CB
:100B7000C96EC7A0B9EF05F08E0E326EC950206E57
:100B80003250C96EC7A0C2EF05F0380E326EC950A0
:100B9000206E3250C96EC7A0CBEF05F0E30E326E67
:100BA000C950206E3250C96EC7A0D4EF05F08F0E29
:100BB000326EC950206E3250C96EC7A0DDEF05F00D
:100BC000C00E326EC950206E3250C96EC7A0E6EF1B
:100BD00005F0E00E326EC950206E3250C96EC7A0CB
:100BE000EFEF05F0010E016E000C0101292D02D07E
:100BF00004D00001000144EF06F00001010133516F
:100C00002E1433250301F26FF36BF2C3F4F30001EA
:100C1000D6EC02F00152D8B412EF06F0010E016ECC
:100C20005CEF06F0CF6ACE6A979A8E9A98988F8872
:100C300057EC05F0979A8E8A98988F888C820301DA
:100C4000F36B020EF46F0001D6EC02F00152D8B43F
:100C50002EEF06F0010E016E5CEF06F02EC0F3F3EE
:100C6000010E0301F46F0001D6EC02F00152D8B47A
:100C70003EEF06F0010E016E5CEF06F0000E016E15
:100C80005CEF06F05CEF06F0010133512E143325C2
:100C90000301F26FF36BF2C3F4F30001D6EC02F040
:100CA0000152D8B458EF06F0010E016E5CEF06F069
:100CB000000E016E5CEF06F0A9EF21F0010127B1F3
:100CC00003D0000169EF06F00001010E016E6BEF29
:100CD00006F0000E016E000C5EEC06F00152D8B476
:100CE00088EF06F036063652D8A488EF06F00101E8
:100CF000279127BD03D0000184EF06F00001010118
:100D0000279D000187EF06F0010127930001376A54
:100D1000000C01013051F00B006E003A0F0E00166E
:100D20000050036AF2CFF5F3F29E0001F6EC01F0F9
:100D30000301F5BFF28E016E01C02AF001013051AE
:100D40000F0B036AF2CFF4F3F29E0001F6EC01F010
:100D50000301F4BFF28E016E01C029F0246AF25340
:100D6000D8B403D0000133EF07F00001979A8E9AB0
:100D700098988F88CF500A08D8B0C3EF06F0000EBD
:100D8000016EDEEF07F00B0E0301F56F0001F5C3F6
:100D900031F09E903150FD08D8B0D1EF06F0FD0E35
:100DA000316E3150CF5CD8A0D1EF06F0CEA6D6EF91
:100DB00006F0CECF22F022A0E0EF06F0E2EF06F040
:100DC0000000000022A2E7EF06F0EAEF06F00000C4
:100DD0000000000022A4EFEF06F0F4EF06F00000A0
:100DE00000000000000000000000CC6A9E929EA25D
:100DF000F7EF06F0CCCF22F022A001EF07F003EFCF
:100E000007F00000000022A208EF07F00BEF07F048
:100E100000000000000022A410EF07F015EF07F01B
:100E20000000000000000000000000002AC032F0B6
:100E3000C950206E3250C96EC7A01CEF07F029C000
:100E400032F0C950206E3250C96EC7A025EF07F0AE
:100E5000979A8E8A98988F888C82000E016EDEEFAA
:100E600007F0DEEF07F0979A8E8A98988F888C9219
:100E7000CF500A08D8B041EF07F0000E016EDEEF48
:100E800007F00B0E0301F56F0001F5C331F09E90E2
:100E90003150FD08D8B04FEF07F0FD0E316E3150E4
:100EA000CF5CD8A04FEF07F0CEA654EF07F0CECF1F
:100EB00022F022A05EEF07F060EF07F000000000D4
:100EC00022A265EF07F068EF07F0000000000000C5
:100ED00022A46DEF07F072EF07F0000000000000A1
:100EE000000000000000CC6A9E929EA275EF07F001
:100EF000CCCF22F022A07FEF07F081EF07F00000B7
:100F0000000022A286EF07F089EF07F00000000042
:100F1000000022A48EEF07F093EF07F0000000001E
:100F200000000000000000006B9A6B986B88A4BA68
:100F30006E50A4BA6E50286A28500708D8A0D5EF82
:100F400007F0A4AAA1EF07F06E50016E01C022F0D5
:100F50002250F2CFF3F3F29E6CEC01F00301F3BFE9
:100F6000F28E016E01C02BF00001A4AAB5EF07F0CC
:100F70006E50016E01C022F02250F2CFF3F3F29EC8
:100F80006CEC01F00301F3BFF28E016E2B26D890BA
:100F900024322B500108D8A003D00001D2EF07F073
:100FA0000001248E282A9CEF07F0979A8E8A989841
:100FB0008F888C822450016EDEEF07F0000C040154
:100FC0001C511E03F3CF01F0F4CF00F01F03F350C8
:100FD00000261D511E03F3500020026E0001000C7C
:100FE000979A8E8A98988F888C928B9AC69A8B9AA9
:100FF000CF500E08D8B002EF08F0C68A000E016E7E
:10100000EFEF08F00F0E0301F56F0001F5C331F0AB
:101010009E903150FD08D8B010EF08F0FD0E316EF3
:101020003150CF5CD8A010EF08F0CEA615EF08F035
:10103000CECF22F022A01FEF08F021EF08F0000031
:10104000000022A226EF08F029EF08F000000000BF
:10105000000022A42EEF08F033EF08F0000000009B
:101060000000000000000000CC6A9E929EA236EFB5
:1010700008F0CCCF22F022A040EF08F042EF08F0B9
:101080000000000022A247EF08F04AEF08F000003D
:101090000000000022A44FEF08F054EF08F0000019
:1010A000000000000000000000006B9A6B986B8845
:1010B000A4BA6E50A4BA6E50226A246A0301F237B1
:1010C000F337F237F337F237F337F237F337F237D4
:1010D000F337F237F337C00EF2170001A4AA6EEF10
:1010E00008F06E50016E286A28500A08D8A0D4EF84
:1010F00008F00301F3BF03D0000187EF08F00001FF
:10110000979A8E9A98988F888B8A8DEF08F0979A85
:101110008E8A98988F888C928B9A2250F2CFF4F313
:10112000F29E6CEC01F00301F4BFF28E016E2426F6
:1011300024500708D8A003D00001A3EF08F0000155
:101140002806D4EF08F0A4AAA3EF08F06E50016EB1
:1011500001C022F0A4AAAAEF08F06E50016E01C0EF
:1011600022F0A4AAB1EF08F06E50016E01C022F087
:101170002250F2CFF4F3F29E6CEC01F00301F4BFC5
:10118000F28E016E01C024F00001A4AAC5EF08F0A0
:101190006E50016E01C022F0D8900301F237F33790
:1011A0000001282A74EF08F08B9AC68A979A8E8AD3
:1011B00098988F888C8228500B08D8A4E4EF08F008
:1011C000010E016EEFEF08F028500908D8A0EDEFEE
:1011D00008F0020E016EEFEF08F0000E016E000C39
:1011E000C68A979A8E9A98988F88180E0301F56F81
:1011F0000001F5C331F09E903150FD08D8B003EFE7
:1012000009F0FD0E316E3150CF5CD8A003EF09F02C
:10121000CEA608EF09F0CECF22F022A012EF09F0FF
:1012200014EF09F00000000022A219EF09F01CEFF2
:1012300009F000000000000022A421EF09F026EFD1
:1012400009F0000000000000000000000000CC6A6F
:101250009E929EA229EF09F0CCCF22F022A033EF7C
:1012600009F035EF09F00000000022A23AEF09F082
:101270003DEF09F000000000000022A442EF09F059
:1012800047EF09F00000000000000000000000002F
:10129000AA0E326EC950206E3250C96ECA0E326E1E
:1012A000C7A050EF09F0C950206E3250C96E2EA46D
:1012B0005EEF09F0170E326E60EF09F0740E326EB9
:1012C000C7A060EF09F0C950206E3250C96E32C01D
:1012D00029F00C0E3724020F326EC7A06DEF09F013
:1012E000C950206E3250C96E246A24500708D8A015
:1012F00086EF09F02A6A29B62A2A29BC2A2AD89018
:1013000029362AB02980242A75EF09F029507B1943
:10131000326EC7A089EF09F0C950206E3250C96EF5
:10132000246A24500708D8A0A2EF09F02A6A29B637
:101330002A2A29BC2A2AD89029362AB02980242A88
:1013400091EF09F029507C19326EC7A0A5EF09F082
:10135000C950206E3250C96E246A24500708D8A0A4
:10136000BEEF09F02A6A29B62A2A29BC2A2AD8906F
:1013700029362AB02980242AADEF09F02950AA0A7B
:10138000326EC7A0C1EF09F0C950206E3250C96E4D
:10139000246A24500708D8A0DAEF09F02A6A29B68F
:1013A0002A2A29BC2A2AD89029362AB02980242A18
:1013B000C9EF09F02950AA0A326EC7A0DDEF09F083
:1013C000C950206E3250C96E246A24500708D8A034
:1013D000F6EF09F02A6A29B62A2A29BC2A2AD890C7
:1013E00029362AB02980242AE5EF09F02950AA0AD3
:1013F000326EC7A0F9EF09F0C950206E3250C96EA5
:10140000246A24500708D8A012EF0AF02A6A29B6E5
:101410002A2A29BC2A2AD89029362AB02980242AA7
:1014200001EF0AF02950AA0A326EC7A015EF0AF0A0
:10143000C950206E3250C96E286A28500B08D8A0B7
:1014400048EF0AF0246A24500708D8A034EF0AF0C5
:101450002A6A29B62A2A29BC2A2AD89029362AB0EB
:101460002980242A23EF0AF0036A2850070FE96E27
:10147000010E0320EA6EEF502918326EC7A03EEF2E
:101480000AF0C950206E3250C96E282A1DEF0AF0AA
:1014900037C02DF0286A2D50285CD8B076EF0AF0BE
:1014A000246A24500708D8A062EF0AF02A6A29B6F5
:1014B0002A2A29BC2A2AD89029362AB02980242A07
:1014C00051EF0AF0036A28507B0FE96E000E0320EB
:1014D000EA6EEF502918326EC7A06CEF0AF0C950BF
:1014E000206E3250C96E282A4BEF0AF0246A24502D
:1014F0000708D8A088EF0AF02A6A29B62A2A29BC48
:101500002A2AD89029362AB02980242A77EF0AF08F
:10151000295001012119326E0001C7A08DEF0AF098
:10152000C950206E3250C96E246A24500708D8A0D2
:10153000A6EF0AF02A6A29B62A2A29BC2A2AD890B4
:1015400029362AB02980242A95EF0AF02950010172
:101550002219326E0001C7A0ABEF0AF0C950206E0D
:101560003250C96E01014053D8A403D00001E6EF08
:101570000AF00001C70E326EC7A0BCEF0AF0C950D6
:10158000206E3250C96E246A24501F08D8A0D4EFB0
:101590000AF0326AC7A0CAEF0AF0C950206E325072
:1015A000C96E242AC4EF0AF0246A24501F08D8A068
:1015B000E6EF0AF0FF0E326EC7A0DCEF0AF0C9506A
:1015C000206E3250C96E242AD5EF0AF0326AC7A0C5
:1015D000E7EF0AF0C950206E3250C96EC7A0EEEF97
:1015E0000AF00101278B010E016E00011BEF23F0B1
:1015F000010127BD03D0000106EF0BF0000101013E
:10160000279D2791376A00010AEF0BF0010127831C
:101610002791376A00011DEF23F0206AA4AA0EEF7C
:101620000BF06E50016E01C022F02250E709FF0856
:10163000D8A41FEF0BF0010E226E20EF0BF0226AF0
:1016400022B0208EA4AA22EF0BF06E50016E01C0D2
:1016500022F02250E709FF08D8A433EF0BF0010E67
:10166000226E34EF0BF0226A22B0208CA4AA36EF4F
:101670000BF06E50016E01C022F02250E709FF0806
:10168000D8A447EF0BF0010E226E48EF0BF0226A50
:1016900022B0208AA4AA4AEF0BF06E50016E01C05E
:1016A00022F02250E709FF08D8A45BEF0BF0010EEF
:1016B000226E5CEF0BF0226A22B02088A4AA5EEFB3
:1016C0000BF06E50016E01C022F02250E709FF08B6
:1016D000D8A46FEF0BF0010E226E70EF0BF0226AB0
:1016E00022B02086A4AA72EF0BF06E50016E01C0EA
:1016F00022F02250E709FF08D8A483EF0BF0010E77
:10170000226E84EF0BF0226A22B02084A4AA86EF16
:101710000BF06E50016E01C022F02250E709FF0865
:10172000D8A497EF0BF0010E226E98EF0BF0226A0F
:1017300022B02082A4AA9AEF0BF06E50016E01C075
:1017400022F02250E709FF08D8A4ABEF0BF0010EFE
:10175000226EACEF0BF0226A22B02080000C206ACF
:10176000A4AAB0EF0BF06E50016E01C022F02A6AFD
:1017700029B62A2A29BC2A2AD89029362AB02980B3
:101780002250E709FF08D8A4CAEF0BF0010E226E21
:10179000CBEF0BF0226A2950221A22B0208EA4AA85
:1017A000CFEF0BF06E50016E01C022F02A6A29B60D
:1017B0002A2A29BC2A2AD89029362AB029802250E0
:1017C000E709FF08D8A4E9EF0BF0010E226EEAEF5B
:1017D0000BF0226A2950221A22B0208CA4AAEEEF24
:1017E0000BF06E50016E01C022F02A6A29B62A2A37
:1017F00029BC2A2AD89029362AB029802250E70904
:10180000FF08D8A408EF0CF0010E226E09EF0CF0CF
:10181000226A2950221A22B0208AA4AA0DEF0CF0C5
:101820006E50016E01C022F02A6A29B62A2A29BC0C
:101830002A2AD89029362AB029802250E709FF08A1
:10184000D8A427EF0CF0010E226E28EF0CF0226ACC
:101850002950221A22B02088A4AA2CEF0CF06E5036
:10186000016E01C022F02A6A29B62A2A29BC2A2A36
:10187000D89029362AB029802250E709FF08D8A439
:1018800046EF0CF0010E226E47EF0CF0226A295051
:10189000221A22B02086A4AA4BEF0CF06E50016EE3
:1018A00001C022F02A6A29B62A2A29BC2A2AD890FD
:1018B00029362AB029802250E709FF08D8A465EF0D
:1018C0000CF0010E226E66EF0CF0226A2950221AEB
:1018D00022B02084A4AA6AEF0CF06E50016E01C001
:1018E00022F02A6A29B62A2A29BC2A2AD89029361F
:1018F0002AB029802250E709FF08D8A484EF0CF011
:10190000010E226E85EF0CF0226A2950221A22B0B5
:101910002082A4AA89EF0CF06E50016E01C022F063
:101920002A6A29B62A2A29BC2A2AD89029362AB016
:1019300029802250E709FF08D8A4A3EF0CF0010E7C
:10194000226EA4EF0CF0226A2950221A22B02080C5
:10195000000C286A28500708D8A00CEF0DF0A4AAA4
:10196000AFEF0CF06E50016E2A6A29B62A2A29BC04
:101970002A2AD89029362AB02980D8902834030101
:10198000F66BF56F420EF525E96E010EF621EA6E53
:10199000EF502B5CD8B403D00001FBEF0CF000013A
:1019A000A4AAD0EF0CF06E50016E2A6A29B62A2A3A
:1019B00029BC2A2AD89029362AB02980D8902834E0
:1019C0000301F66BF56F010EF525016E000EF62191
:1019D000036E0150420FE96E010E0320EA6EEF50D4
:1019E0002C5CD8B403D00001F9EF0CF00001010E1B
:1019F000246E09EF0DF0A4AAFBEF0CF06E50016EFF
:101A00002A6A29B62A2A29BC2A2AD89029362AB035
:101A10002980282AAAEF0CF0286A28500F08D8A09D
:101A200023EF0DF0A4AA12EF0DF06E50016E2A6A9A
:101A300029B62A2A29BC2A2AD89029362AB02980F0
:101A4000282A0DEF0DF0CDEF16F00401076B066BA1
:101A5000086B0001040108510B08D8B003D0000145
:101A600066EF0DF0000107C409F406C407F409C4C9
:101A700006F4036A040108510125E96E02510320AE
:101A8000EA6EEF50071B0739006E0F0E001600506C
:101A9000071B0739006EF00E00160050061B0731B9
:101AA000006E003200321F0E00160050061B073970
:101AB000006EF00E00160050D89000360050071B44
:101AC00000010401082B00012AEF0DF00401086B4E
:101AD000000104010551085DD8A003D00001A5EF65
:101AE0000DF0000107C409F406C407F409C406F4A4
:101AF000036A040108510325E96E04510320EA6ECC
:101B0000EF50071B0739006E0F0E00160050071B21
:101B10000739006EF00E00160050061B0731006EEC
:101B2000003200321F0E00160050061B0739006EEF
:101B3000F00E00160050D89000360050071B000130
:101B40000401082B000169EF0DF004011D6B06C4B0
:101B50001CF4010E1F6F1E6B0001DFEC07F002C0CA
:101B60000BF401C00AF4040107510A25016E000EAE
:101B70000B21036E0350026E0001000C0A0E016E71
:101B8000010E026E000C080E0401046F0001040136
:101B90000453D8A403D00001E9EF0DF00001010EB9
:101BA0000401045D036A0225E96E03510320EA6E15
:101BB000EF3C02D004D000010001E2EF0DF0000183
:101BC000E4EF0DF0E9EF0DF0040104070001C7EFA9
:101BD0000DF004010453D8B403D00001F5EF0DF06B
:101BE0000001010E016E3DEF0EF0080E0401046FBE
:101BF000000104010453D8A403D000012BEF0EF020
:101C00000001010E0401045D036A0225E96E03511F
:101C10000320EA6EEFCF06F40001BEEC0DF002C027
:101C200008F401C007F4010E0401045D036A0725EE
:101C3000E96E08510320EA6EEF50065DD8A403D088
:101C4000000126EF0EF000012BEF0EF00401040757
:101C50000001F9EF0DF004010453D8B403D00001E2
:101C600039EF0EF00001010E016E3DEF0EF03DEF79
:101C70000EF0000E016E3DEF0EF0000C9D90010184
:101C8000279F27B103D000014CEF0EF000010101A6
:101C900027912793279D0001979A8E9A98988F985D
:101CA000000C3EEC0EF0000C51EC0EF0000C0401A8
:101CB000006BD1B0002B0051016E0001FAEF13F060
:101CC000030EF66EF76A300EF86E0800F5CF00F4DA
:101CD000F86AD890040100330051016E0001FEEF54
:101CE00013F0040100510708D8A003D000017DEFD4
:101CF0000EF000010401006B0001D89004010035D2
:101D0000FE0B016F000102EC00F00401026BF2BE59
:101D1000022B0253D8A403D0000195EF0EF000016E
:101D2000F29CF29EF2BE91EF0EF0030EF66EF76A91
:101D3000300EF86E01C4F5FF0C00A68EA68CA684AA
:101D4000550EA76EAA0EA76EA68200000000000026
:101D5000F86AA69404010253D8A403D00001B4EF9A
:101D60000EF00001C00EF212000CD180000C02C473
:101D700032F18D80200E286E2852D8B4C7EF0EF0B5
:101D800098908F8098908F902806BCEF0EF08D90E1
:101D900004010253D8A403D00001D9EF0EF00001D2
:101DA00098908F8098908F90040102070001C8EFEF
:101DB0000EF0000C01C402F4B7EC0EF0E4EF0EF0EC
:101DC00000C401F4DAEF0EF063EF14F000C42AF15E
:101DD000000C00C433F17FEF14F08B94000C979C3F
:101DE0008E9C000C979C8E8C000C8B84000C010147
:101DF00027B903D0000102EF0FF00001010E016EC0
:101E000004EF0FF0000E016E000C010127BB03D0A0
:101E1000000110EF0FF00001010E016E12EF0FF044
:101E2000000E016E000C05EC0FF00150000C0101DA
:101E30003453D8B403D0000123EF0FF00001A4EF16
:101E40000FF027EF0FF0EFEC0EF0EDEC0EF00101CC
:101E500034510608D8B403D0000155EF0FF000014B
:101E600001012551020A0001D8B441EF0FF0030A25
:101E7000D8B441EF0FF0010AD8B447EF0FF04DEF9F
:101E80000FF0F2EC0EF0EDEC0EF053EF0FF0F2EC81
:101E90000EF0F5EC0EF053EF0FF0EFEC0EF0EDEC72
:101EA0000EF053EF0FF062EF0FF001012CB303D0EF
:101EB000000160EF0FF00001F5EC0EF062EF0FF0A3
:101EC000EDEC0EF00101342D02D004D00001000130
:101ED0007AEF0FF000010101282D02D004D000019B
:101EE000000178EF0FF00001F2EC0EF07AEF0FF046
:101EF000EFEC0EF0010134510308D8B403D0000117
:101F00008FEF0FF00001F7EC0EF00152D8B48DEF17
:101F10000FF0F2EC0EF08FEF0FF0EFEC0EF001018E
:101F200034510208D8B403D00001A4EF0FF000012F
:101F300013EC0FF00152D8B4A2EF0FF0F2EC0EF058
:101F4000A4EF0FF0EFEC0EF0000CEDEC0EF0EFEC68
:101F50000EF000C434F117EC0FF0000C969E8D9E2D
:101F6000FA0E0401176F000117C434F0020E345E3C
:101F7000000000000000000000000000342EBCEF54
:101F80000FF0FA0E0401176F000117C434F0020EAF
:101F9000345E000000000000000000000000342E4D
:101FA000CDEF0FF0968E460E0401176F000117C497
:101FB00034F0020E345E000000000000000000005B
:101FC0000000342EDFEF0FF084AEEDEF0FF0010EC6
:101FD000016EF1EF0FF0F1EF0FF0000E016EF1EF77
:101FE0000FF001C014F4FA0E0401176F000117C4BA
:101FF00034F0020E345E000000000000000000001B
:102000000000342EFFEF0FF0FA0E0401176F0001ED
:1020100017C434F0020E345E00000000000000001F
:1020200000000000342E10EF10F00401142D02D037
:1020300004D00001000124EF10F00001000E016E39
:1020400028EF10F028EF10F0010E016E28EF10F0CD
:10205000000C0401166B0001040116510708D8B0EA
:1020600003D0000197EF10F00001969E8D9E15C4DD
:1020700000F004011651016ED8A403D0000147EF0F
:1020800010F00001D8900032012E42EF10F000A0B5
:102090006FEF10F00A0E0401176F000117C434F03F
:1020A000020E345E0000000000000000000000008E
:1020B000342E56EF10F0968E4B0E0401176F000170
:1020C00017C434F0020E345E00000000000000006F
:1020D00000000000342E68EF10F092EF10F0500E68
:1020E0000401176F000117C434F0020E345E0000C3
:1020F00000000000000000000000342E7BEF10F014
:10210000968E050E0401176F000117C434F0020EFD
:10211000345E000000000000000000000000342ECB
:102120008DEF10F00401162B00012CEF10F0000CC5
:102130000401156B146B0001040114510708D8B099
:1021400003D00001F7EF10F00001969E8D9E080E5F
:102150000401176F000117C434F0020E345E000052
:1021600000000000000000000000342EB3EF10F06B
:10217000968E040E0401176F000117C434F0020E8E
:10218000345E000000000000000000000000342E5B
:10219000C5EF10F084AEE1EF10F0010E006E040107
:1021A0001451016ED8A403D00001DDEF10F000013E
:1021B000D8900036012ED8EF10F00050040115130E
:1021C0000001410E0401176F000117C434F0020E24
:1021D000345E000000000000000000000000342E0B
:1021E000EDEF10F00401142B00019CEF10F004013E
:1021F0001551016E0001000C04010D518F08D8A08B
:1022000003D0000109EF11F00001020E016E65EF2D
:1022100012F0070E04010D258F08D8A003D000018D
:1022200017EF11F00001030E016E65EF12F0AEEC36
:102230000FF001C010F4CC0E0401156F000129EC61
:1022400010F00F0E0401156F000129EC10F00DC401
:1022500015F429EC10F00401156B000129EC10F0C5
:102260000FC403F004010E51E96E03C0EAFFEFCF83
:1022700014F414C415F4000129EC10F004010E2B21
:10228000D8B40F2B0FC403F00E51E96E03C0EAFF60
:10229000EFCF14F414C415F4000129EC10F004017C
:1022A0000E2BD8B40F2B0FC403F00E51E96E03C0F0
:1022B000EAFFEFCF14F414C415F4000129EC10F078
:1022C00004010E2BD8B40F2B0FC403F00E51E96E8E
:1022D00003C0EAFFEFCF14F414C415F4000129EC95
:1022E00010F004010E2BD8B40F2B0FC403F00E51C5
:1022F000E96E03C0EAFFEFCF14F414C415F4000133
:1023000029EC10F004010E2BD8B40F2B0FC403F0EE
:102310000E51E96E03C0EAFFEFCF14F414C415F4B4
:10232000000129EC10F004010E2BD8B40F2B0FC4C0
:1023300003F00E51E96E03C0EAFFEFCF14F414C4AA
:1023400015F4000129EC10F004010E2BD8B40F2B6A
:102350000FC403F00E51E96E03C0EAFFEFCF14F48F
:1023600014C415F4000129EC10F004010E2BD8B4AC
:102370000F2B000198EC10F001C011F498EC10F054
:1023800001C012F4AEEC0FF0080E04010E5F000E57
:102390000F5B0001AEEC0FF001C010F4CC0E040195
:1023A000156F000129EC10F0550E0401156F0001A6
:1023B00029EC10F00DC415F429EC10F00401156B94
:1023C000000129EC10F0070E0401156F000129EC43
:1023D00010F00401156B0D0E146F0001040114516F
:1023E0001511D8A403D0000143EF12F00001FA0E3A
:1023F0000401176F000117C434F0020E345E0000B0
:1024000000000000000000000000342E03EF12F076
:10241000FA0E0401176F000117C434F0020E345E87
:10242000000000000000000000000000342E14EF47
:1024300012F0FA0E0401176F000117C434F0020EF7
:10244000345E000000000000000000000000342E98
:1024500025EF12F0FA0E0401176F000117C434F0D3
:10246000020E345E000000000000000000000000CA
:10247000342E36EF12F004011451D8B415071407A6
:102480000001EEEF11F098EC10F001C013F404011C
:102490001351AA08D8A403D0000159EF12F000018B
:1024A000040113515508D8B403D000015FEF12F0B6
:1024B0000001010E0401106F000162EF12F004012F
:1024C000106B000104011051016E000195EF12F034
:1024D00000C402F401C403F4020E04010C6F0001F5
:1024E00004010C510708D8B003D0000188EF12F0A6
:1024F0000001036A04010C51020FE96E040E03206F
:10250000EA6EEF6A000104010C2B000170EF12F07B
:10251000040E04010B6F020E0A6F0D6B0BC40FF457
:102520000AC40EF40001FCEF10F0015029EF15F081
:10253000020E0101286F0001979A8E9A98988F9841
:102540008C9498968F860401156B5A0E146F0001B7
:10255000040114511511D8A403D00001FDEF12F0AD
:102560000001FA0E0401176F000117C434F0020EC7
:10257000345E000000000000000000000000342E67
:10258000BDEF12F0FA0E0401176F000117C434F00A
:10259000020E345E00000000000000000000000099
:1025A000342ECEEF12F0FA0E0401176F000117C49B
:1025B00034F0020E345E0000000000000000000055
:1025C0000000342EDFEF12F0FA0E0401176F000145
:1025D00017C434F0020E345E00000000000000005A
:1025E00000000000342EF0EF12F004011451D8B4B2
:1025F000150714070001A8EF12F032C102F4B7EC7E
:102600000EF00101278F00019E90FD0ECF6EE80EA7
:10261000CE6ECC6A9D80000C98EC12F0000C5EEC43
:1026200006F00152D8B427EF13F0010127BD03D003
:10263000000122EF13F000010101279D2791000105
:1026400026EF13F00101279327910001376A30EF3D
:1026500013F001019391946B926B00010FEF13F053
:10266000ADEF15F001013251016E0001000C0401C3
:102670000053D8B403D0000143EF13F00001010E62
:102680000401006F0001010127AF03D000014EEFEC
:1026900013F00001000E016E7DEF13F0010127B170
:1026A00003D0000159EF13F00001000E016E7DEF21
:1026B00013F037C008F132EC13F001C009F138C053
:1026C00012F1010E0401026F070E016F046B7B0E05
:1026D000036F37C005F4000125EC0DF002C03AF09D
:1026E00001C039F03AC021F139C022F100C436F0FE
:1026F000382A01012781010E016E0001000CBB5137
:10270000A508D8A4DBEF15F0BC510E08D8A4DBEF68
:1027100015F0BE51C608D8A448EF14F0BF51A80860
:10272000D8A448EF14F00301F56BF66BF76BF86B68
:10273000F96BFA6BFB6BFC6BFD6BFE6B000104012C
:10274000036BC10E026F0001C3EC0DF00152D8B44F
:1027500048EF14F0C9C0F7F3CAC0F8F30301F75308
:10276000D8B403D00001BFEF13F000010301F85308
:10277000D8B403D00001BFEF13F00001FF00030144
:10278000F73D02D004D000010001D4EF13F00001A6
:102790000301F83D02D004D000010001D4EF13F092
:1027A000000154EC0EF003000301F753D8B403D03A
:1027B0000001E4EF13F000010301F853D8A403D0A3
:1027C000000148EF14F000010301F73D02D004D0EE
:1027D00000010001F8EF13F000010301F83D02D001
:1027E00004D000010001F8EF13F0000148EF14F0ED
:1027F00057EF0EF001C0F6F360EF0EF001C0F5F3F5
:102800000301F7513C0DF350F825F96FFA6BD8909E
:10281000FA31FE6FF931FD6F070E0401006F000100
:1028200071EC0EF0B5EC0EF00301FC6BFB6B0001DC
:102830000301FC51FE5DD8B003D0000138EF14F065
:102840000001D8A42DEF14F00301FD51FB5DD8A0C9
:1028500003D0000138EF14F0000103000000000075
:1028600000000301FB2BD8B4FC2B000118EF14F07F
:1028700002EC00F0F5C300F471EC0EF00301F65326
:10288000D8A403D0000148EF14F00001B5EC0EF01D
:10289000BE51CB08D8A463EF14F0BF510808D8A4E8
:1028A00063EF14F00401036BC10E026F0001C3EC6F
:1028B0000DF00152D8B463EF14F0C9C0FFF3FFC3A9
:1028C00000F4E0EF0EF0BE51C608D8A471EF14F08A
:1028D000BF51D008D8A471EF14F0C1C000F4E6ECE9
:1028E0000EF0BE519F08D8A47FEF14F0BF51C0086E
:1028F000D8A47FEF14F0C1C000F4E9EF0EF0BE2DB4
:1029000085EF14F0BF2D85EF14F0BE517408D8A4E4
:10291000B2EF14F0BF517808D8A4B2EF14F004015C
:10292000036BC70E026F0001C3EC0DF00152D8B467
:10293000B2EF14F0C1C000F4A5EC0FF0C253D8B44C
:10294000A6EF14F0F5EC0EF0A8EF14F0EDEC0EF09D
:10295000C353D8B4B0EF14F0F2EC0EF0B2EF14F0B1
:10296000EFEC0EF0BE518E08D8A485EF15F0BF51E4
:102970001808D8A485EF15F00401036BC60E026F8A
:102980000001C3EC0DF00152D8B485EF15F054EC02
:102990000EF00401156B140E146F000104011451A4
:1029A0001511D8A403D0000123EF15F00001FA0E91
:1029B0000401176F000117C434F0020E345E0000EA
:1029C00000000000000000000000342EE3EF14F0CF
:1029D000FA0E0401176F000117C434F0020E345EC2
:1029E000000000000000000000000000342EF4EFA2
:1029F00014F0FA0E0401176F000117C434F0020E30
:102A0000345E000000000000000000000000342ED2
:102A100005EF15F0FA0E0401176F000117C434F02A
:102A2000020E345E00000000000000000000000004
:102A3000342E16EF15F004011451D8B415071407FD
:102A40000001CEEF14F0C1C000F4C2C001F468EF81
:102A500012F00CEC13F00401156B140E146F00014E
:102A6000040114511511D8A403D0000185EF15F00D
:102A70000001FA0E0401176F000117C434F0020EB2
:102A8000345E000000000000000000000000342E52
:102A900045EF15F0FA0E0401176F000117C434F06A
:102AA000020E345E00000000000000000000000084
:102AB000342E56EF15F0FA0E0401176F000117C4FB
:102AC00034F0020E345E0000000000000000000040
:102AD0000000342E67EF15F0FA0E0401176F0001A5
:102AE00017C434F0020E345E000000000000000045
:102AF00000000000342E78EF15F004011451D8B412
:102B000015071407000130EF15F0010193A303D05E
:102B1000000190EF15F00001000E016EDDEF15F0E1
:102B2000BE517308D8A4D7EF15F0BF51D808D8A468
:102B3000D7EF15F00401036BC10E026F0001C3EC67
:102B40000DF00152D8B4D7EF15F05EEC06F001524B
:102B5000D8B4ADEF15F029EF13F0A50E7B6F0E0E74
:102B60007C6F7D6B860E7E6F200E7F6F080E806FF0
:102B700016C181F017C182F018C183F019C184F029
:102B80001AC185F01BC186F01CC187F01DC188F0F9
:102B90000E0E376E1E0E0401006F000137EC13F0AD
:102BA0000152D8B4D7EF15F00101278D0001010EB5
:102BB000016EDDEF15F0000E016E71EF17F01EA42F
:102BC000E6EF15F0010E016EE8EF15F0000E016E54
:102BD00084EF17F0010127890001F6EF17F0C68A8C
:102BE000979A8E8A98988F888C82180E0301F56FB9
:102BF0000001F5C331F09E903150FD08D8B003EFCD
:102C000016F0FD0E316E3150CF5CD8A003EF16F0F8
:102C1000CEA608EF16F0CECF22F022A012EF16F0CB
:102C200014EF16F00000000022A219EF16F01CEFBE
:102C300016F000000000000022A421EF16F026EF9D
:102C400016F0000000000000000000000000CC6A48
:102C50009E929EA229EF16F0CCCF22F022A033EF55
:102C600016F035EF16F00000000022A23AEF16F041
:102C70003DEF16F000000000000022A442EF16F025
:102C800047EF16F000000000000000000000000008
:102C90006B9A6B986B88A4BA6E50A4BA6E50640E8F
:102CA000286E988486A45CEF16F02852D8B45CEFA6
:102CB00016F0280651EF16F0988486B467EF16F0E8
:102CC0002852D8B467EF16F028065CEF16F0988407
:102CD00086A472EF16F02852D8B472EF16F02806C8
:102CE00067EF16F0988486B47DEF16F02852D8B4BA
:102CF0007DEF16F0280672EF16F0080E006E002E1B
:102D0000FED76B9A6B986B88A4BA6E50A4BA6E50BB
:102D1000A4AA88EF16F06E50016E01C022F0206A5E
:102D20001E0E286E2852D8B4B1EF16F02050CA08F3
:102D3000D8B4B1EF16F0D8902036A4AA9DEF16F0C3
:102D40006E50016E01C022F02250E709FF08D8A49E
:102D5000ADEF16F02080AEEF16F02090280692EF2F
:102D600016F02050CA08D8B4BAEF16F0000E016E63
:102D7000F9EF17F00DEC0BF020C029F00DEC0BF083
:102D800020C0F2F3AFEC0BF020C02BF0AFEC0BF057
:102D900020C02CF0246AA9EF0CF01EAAD2EF16F086
:102DA000010E246E2452D8A4DAEF16F0000E016E44
:102DB000F9EF17F0286A28500B08D8A0EEEF16F0AC
:102DC000AFEC0BF0036A2850130FE96E010E0320DD
:102DD000EA6E20C0EFFF282ADBEF16F00C0E03018D
:102DE000F25DFE0F2D6E2D504008D8A003D00001DB
:102DF000FFEF16F00001000E016EF9EF17F0286AE0
:102E00002D50285CD8B013EF17F0AFEC0BF0036A2D
:102E10002850BB0FE96E000E0320EA6E20C0EFFFC2
:102E2000282A00EF17F0286A28500108D8A027EFB9
:102E300017F0AFEC0BF0036A2850230FE96E010E78
:102E40000320EA6E20C0EFFF282A14EF17F00101DB
:102E50004153D8A403D0000131EF17F000010DEC6D
:102E60000BF0010E0401026F130E016F046BBB0E19
:102E7000036F2DC005F4000125EC0DF002C0F4F342
:102E800001C0F3F30301F451036A01012319286E11
:102E900024510301F319006EF451036E00502812FF
:102EA0002852D8A403D000015EEF17F00001010101
:102EB000256B000E016E0001F9EF17F0BB51A5085C
:102EC000D8A471EF17F0BC510E08D8A471EF17F019
:102ED0001EBC71EF17F0010E0101256F00017FEF9D
:102EE00013F0BB51A508D8A47EEF17F0BC510E0813
:102EF000D8A47EEF17F01EAEF7EF17F0020E010117
:102F0000256F0001DFEF15F00152D8A4F7EF17F09D
:102F1000286A28500B08D8A0ACEF17F0036A285095
:102F2000FB0F016E000E032201500301F56F03C079
:102F3000F6F3036A2850130FE96E010E0320EA6EC0
:102F4000EF50F76FF6C3EAFFF5C3E9FFF7C3EFFFF2
:102F50000001282A89EF17F0286A2D50285CD8B084
:102F6000D0EF17F0036A28503B0F016E000E0322CA
:102F700001500301F56F03C0F6F3036A2850BB0F3D
:102F8000E96E000E0320EA6EEF50F76FF6C3EAFF1A
:102F9000F5C3E9FFF7C3EFFF0001282AADEF17F0F3
:102FA000286A28500108D8A0F4EF17F0036A2850C7
:102FB0001F0F016E010E032201500301F56F03C0C4
:102FC000F6F3036A2850230FE96E010E0320EA6E20
:102FD000EF50F76FF6C3EAFFF5C3E9FFF7C3EFFF62
:102FE0000001282AD1EF17F0EAEF15F01E86010E36
:102FF000016E2EEF23F0010130BF03D0000105EF79
:1030000018F0000101013E2B0001010130BD03D089
:1030100000010FEF18F0000101013D2B000101013B
:1030200030BB03D0000119EF18F0000101013C2B67
:103030000001010130B903D0000123EF18F00001B5
:1030400001013B2B0001010130B703D000012DEF3E
:1030500018F0000101013A2B0001010130B503D045
:10306000000137EF18F000010101392B00010101C7
:1030700030B303D0000141EF18F000010101382BFB
:103080000001010130B103D000014BEF18F0000145
:103090000101372B000101013F2B3F3D02D004D03D
:1030A00000010001AEEF18F00001246AFF0E286E47
:1030B000296A29500708D8A07FEF18F0036A295021
:1030C000370FE96E010E0320EA6EEF50226E225098
:1030D0007F08D8B070EF18F0800E225E73EF18F002
:1030E000800ED88022562850225CD8B07CEF18F091
:1030F00029C024F022C028F0292A59EF18F0036AC9
:103100002450F2CFF2F3F29E08EC02F00301F2BF7A
:10311000F28E016E01C036F1036A2450F2CFF2F351
:10312000F29E000116EC02F00301F2BFF28EF36F83
:10313000F3C300F40001E6EC0EF0246A2450080802
:10314000D8A0AEEF18F0036A2450370FE96E010ED5
:103150000320EA6EEF6A242A9EEF18F06BEF23F04B
:10316000B350F00BD8B4C5EF18F0B350F00B030117
:10317000F26FF239006E0F0E001600500101C627E3
:10318000000EC7230301F251B35E0001FBEF20F0F4
:10319000040104510619800B086F04BF03D000011D
:1031A000D8EF18F0031F041F032BD8B4042B000121
:1031B000040106BF03D00001E4EF18F0051F061F4D
:1031C000052BD8B4062B0001016A026A006A036A63
:1031D00004010651D8B403D00001F6EF18F00551F0
:1031E000D8A403D0000121EF19F00001100E040152
:1031F000076F0001D8900401033704370036033607
:103200000651035CD8B403D000010AEF19F0055150
:10321000005C0001D8A016EF19F004010551005E12
:10322000D8A003060651035ED8800001013602369D
:103230000401072F02D004D000010001FAEF18F0BA
:103240000001040108BF03D000012CEF19F0011E9A
:10325000021E012AD8B4022A0001000C0D0E04013E
:103260000125E96E000E0221EA6EEF52D8B403D0B8
:10327000000158EF19F000010D0E04010125E96E5F
:10328000000E0221EA6EEF50EF2A060DF350036A9A
:103290000E0F016E000E032201500125016E025136
:1032A00003220350026E00015DEF19F05DEF19F08B
:1032B000000E016E026E5DEF19F0000C8A84000CA6
:1032C0005EEC19F0000E016E000C9780050E006E8A
:1032D000002E68EF19F0938E060E006E002E6EEF32
:1032E00019F08E909790050E006E002E75EF19F074
:1032F0008A9E939E000C080E016E050E006E002E35
:103300007FEF19F08A9E939E060E006E002E86EFC8
:1033100019F0040108378E90D8B09780D8A0979004
:10332000938E000181AE92EF19F0012E7DEF19F01E
:10333000050E006E002E9AEF19F08A9E939E0000F3
:103340009780060E006E002EA3EF19F0060E006E99
:10335000002EA8EF19F0938E81AEACEF19F0016A40
:10336000060E006E002EB2EF19F085B001808A9E25
:10337000939E8E909790000C07C408F47BEC19F094
:103380000150000C97900000938E81AEC5EF19F0AC
:10339000050E006E002ECAEF19F000D000009780D5
:1033A000050E006E002ED2EF19F0000C080E04017D
:1033B000096F00C00AF400019780060E006E002E0F
:1033C000DFEF19F0938E81AEE3EF19F085B0D8806E
:1033D00085A0D8900136050E006E002EEDEF19F095
:1033E000939E8A9E0401092F02D004D0000100019F
:1033F000DCEF19F09780060E006E0001002EFEEF44
:1034000019F08E9004010A51D8A497900001000091
:10341000938E81AE09EF1AF0050E006E002E0EEFAE
:103420001AF08A9E939E060E006E002E15EF1AF07B
:103430008E909790000C07C400F0D6EC19F0015064
:10344000000C08C409F4700E04010917093B0F0EA3
:1034500009170A6B010E006E0951016ED8A403D042
:10346000000139EF1AF00001D8900036012E34EF38
:103470001AF0005004010A1308C40BF40F0E0B17C6
:10348000116B0AC410F4010E105D006E000E11598C
:10349000036E0050126F03C013F41D6B100E1C6FEF
:1034A00013C41FF412C41EF40001DFEC07F002C0C5
:1034B0000FF401C00EF40401116B0AC410F4036A86
:1034C0000B51126F03C013F411C41DF410C41CF48B
:1034D00013C41FF412C41EF40001DFEC07F002C095
:1034E00003F0015004010E250C6F03500F210D6FE6
:1034F0000C51016E0D51026E0001000C65EC19F0CB
:10350000720E0401076F0001BCEC19F00152D8B42F
:1035100090EF1AF0C2EC19F0010E016ED4EF1AF020
:10352000430E0401076F0001BCEC19F00152D8B43E
:10353000A0EF1AF0C2EC19F0020E016ED4EF1AF0EF
:10354000C2EC19F065EC19F0730E0401076F00016D
:10355000BCEC19F00152D8B4B4EF1AF0C2EC19F077
:10356000030E016ED4EF1AF00401076B00011BEC8F
:103570001AF001C005F4C2EC19F004C403F0040110
:103580000351066F03C007F405C408F4000121ECE1
:103590001AF007C4EAFF06C4E9FF02C0ECFFED52CF
:1035A00001C0EFFF000E016E000C65EC19F0720E09
:1035B0000401076F0001BCEC19F00152D8B4E7EF29
:1035C0001AF0C2EC19F0010E016E2BEF1BF0830E06
:1035D0000401076F0001BCEC19F00152D8B4F7EFF9
:1035E0001AF0C2EC19F0020E016E2BEF1BF0C2ECC8
:1035F00019F065EC19F0730E0401076F0001BCECC3
:1036000019F00152D8B40BEF1BF0C2EC19F0030E05
:10361000016E2BEF1BF00401076B00011BEC1AF08D
:1036200001C005F4C2EC19F004C403F00401035115
:10363000066F03C007F405C408F4000121EC1AF07A
:1036400007C4EAFF06C4E9FF02C0ECFFED5201C067
:10365000EFFF000E016E000C180E04010125E96E4B
:10366000000E0221EA6EEF52D8B403D0000156EFEB
:103670001BF00001180E04010125E96E000E022165
:10368000EA6EEF50EF2A030DF350036A190F016E33
:10369000000E032201500125016E02510322035046
:1036A000026E00015BEF1BF05BEF1BF0000E016E82
:1036B000026E5BEF1BF0000C5EEC19F0000E016E69
:1036C000000C65EC19F0900E0401076F0001BCECD2
:1036D00019F00152D8B473EF1BF0C2EC19F0040ECC
:1036E000016EB0EF1BF00401076B0001BCEC19F098
:1036F0000152D8B482EF1BF0C2EC19F0030E016E38
:10370000B0EF1BF065EC19F0910E0401076F00019A
:10371000BCEC19F00152D8B494EF1BF0C2EC19F0D4
:10372000040E016EB0EF1BF0010E0401076F0001E3
:103730001BEC1AF001C005F40401076B00011BEC3F
:103740001AF001C006F4C2EC19F004C403F004013D
:103750000351E96E03C0EAFF05C4EFFF000E016EDE
:103760000001000C04010151E96E0251EA6EEF52B2
:10377000D8B403D00001D8EF1BF0000104010151BF
:10378000E96E0251EA6EEF50EF2A080DF350036A1A
:10379000010F016E000E032201500125016E02513E
:1037A00003220350026E0001DDEF1BF0DDEF1BF082
:1037B000000E016E026EDDEF1BF0000C000E016EBC
:1037C000000C04010F6B0E6B116B106B000181B6C6
:1037D000E7EF1BF081A6EAEF1BF081A6F7EF1BF0E5
:1037E00004010E2BD8B40F2B0001EDEF1BF081B6B6
:1037F00001EF1CF00401102BD8B4112B0001F7EFDE
:103800001BF00BC403F004010A51E96E03C0EAFF88
:103810000FC4ECFFED520EC4EFFF0DC403F00C51CA
:10382000E96E03C0EAFF11C4ECFFED5210C4EFFFD4
:10383000000E016E0001000C016A026A006A036A50
:1038400004011D51D8B403D000012EEF1CF01C510F
:10385000D8A403D0000158EF1CF00001100E0401A1
:103860001E6F0001D89004011A371B37003603364B
:103870001D51035CD8B403D0000142EF1CF01C5171
:10388000005C0001D8A04EEF1CF004011C51005E4A
:10389000D8A003061D51035ED88000010136023610
:1038A00004011E2F02D004D00001000132EF1CF0F1
:1038B0000001000C0DC411F40CC410F40FC413F477
:1038C0000EC412F40401125110251A6F1351112164
:1038D0001B6FD8901B31156F1A31146F300E1B6F90
:1038E000D40E1A6F15C41DF414C41CF400011CEC92
:1038F0001CF002C017F401C016F404011451105D4D
:103900001A6F155111591B6F1BC41DF41AC41CF4F6
:1039100017C41FF416C41EF40001DFEC07F002C048
:1039200019F4040101C018F40BC403F00A51E96E44
:1039300003C0EAFF19C4ECFFED5218C4EFFF000EFC
:10394000016E0001000C040E04010B6F050E0A6FDE
:10395000040E0D6F070E0C6F0001E1EC1BF004C4A8
:103960000BF403C40AF406C40DF405C40CF408C433
:103970000FF407C40EF45AEC1CF001C009F4040162
:103980000951016E0001000C000E016E000C0401D3
:103990000F6B0E6B116B106B000181B8CDEF1CF03B
:1039A00081A8D0EF1CF081A8DDEF1CF004010E2BE4
:1039B000D8B40F2B0001D3EF1CF081B8E7EF1CF057
:1039C0000401102BD8B4112B0001DDEF1CF00BC447
:1039D00003F004010A51E96E03C0EAFF0FC4ECFFD3
:1039E000ED520EC4EFFF0DC403F00C51E96E03C09D
:1039F000EAFF11C4ECFFED5210C4EFFF000E016EA0
:103A00000001000C040E04010B6F050E0A6F040E7A
:103A10000D6F070E0C6F0001C7EC1CF004C40BF413
:103A200003C40AF406C40DF405C40CF408C40FF46E
:103A300007C40EF45AEC1CF001C009F4040109514A
:103A4000016E0001000C000E016E000C04010F6BF2
:103A50000E6B116B106B000181BA2CEF1DF081AA67
:103A60002FEF1DF081AA3CEF1DF004010E2BD8B4FE
:103A70000F2B000132EF1DF081BA46EF1DF004015B
:103A8000102BD8B4112B00013CEF1DF00BC403F038
:103A900004010A51E96E03C0EAFF0FC4ECFFED52C6
:103AA0000EC4EFFF0DC403F00C51E96E03C0EAFF32
:103AB00011C4ECFFED5210C4EFFF000E016E0001C7
:103AC000000C040E04010B6F050E0A6F040E0D6F3F
:103AD000070E0C6F000126EC1DF004C40BF403C4A8
:103AE0000AF406C40DF405C40CF408C40FF407C4AA
:103AF0000EF45AEC1CF001C009F404010951016EE6
:103B00000001000C1C0E04010125E96E000E0221CB
:103B1000EA6EEF52D8B403D00001ACEF1DF0000103
:103B20001C0E04010125E96E000E0221EA6EEF5021
:103B3000EF2A080DF350036A1D0F016E000E0322D9
:103B400001500125016E025103220350026E000153
:103B5000B1EF1DF0B1EF1DF0000E016E026EB1EF7E
:103B60001DF0000CB350016E000CB250016E000C41
:103B7000B2EC1DF001C00DF4B5EC1DF001C00EF467
:103B8000B2EC1DF004010D51015CD8B403D000016A
:103B9000B8EF1DF0000104010B51E96E0C51EA6E03
:103BA0000D39006E0F0E001600500101C625EF6E94
:103BB000000EC721EC6EEC6AEC6A040E04010B25C2
:103BC000E96E000E0C21EA6E126B0DC411F411396E
:103BD000156F146BF00E1517176B0EC416F416350F
:103BE000026E1735036E023603360236033602368E
:103BF0000336F00E021602501411196F03501511FE
:103C00001A6F1951006E1A51036E0050EF6E03C007
:103C1000ECFFEC6AEC6A0001000C04010B51016E30
:103C20000C51036E01500F6F03C010F40D51E96E7B
:103C30000E51EA6EEFCF11F4ECCF12F4ECCF13F487
:103C4000ECCF14F401019D5104011125006E010116
:103C50009E5104011221016E01019F5104011321A3
:103C6000026E0101A05104011421036E03C018F477
:103C700002C017F401C016F400C015F410C4EAFF26
:103C80000FC4E9FF15C4EFFF16C4ECFF17C4ECFF27
:103C900018C4ECFF040E0B25016E000E0C21036E00
:103CA00001500F6F03C010F4040E0D25E96E000ED5
:103CB0000E21EA6EEFCF11F4ECCF12F4ECCF13F437
:103CC000ECCF14F40101A15104011125006E010192
:103CD000A25104011221016E0101A351040113211B
:103CE000026E0101A45104011421036E03C018F4F3
:103CF00002C017F401C016F400C015F410C4EAFFA6
:103D00000FC4E9FF15C4EFFF16C4ECFF17C4ECFFA6
:103D100018C4ECFF040E0B25E96E000E0C21EA6EB0
:103D2000EFCF0FF4ECCF10F4ECCF11F4ECCF12F492
:103D3000006A016A1151010B026E036A0052D8B485
:103D400003D00001B1EF1EF000010152D8A4B1EF81
:103D50001EF00252D8A4B1EF1EF00352D8B4E7EF20
:103D60001EF004010B51E96E0C51EA6E010EEF24B6
:103D7000006E000EEC20016E000EEC20026E000EB4
:103D8000EC20036EED52ED52ED5200C0EFFF01C08A
:103D9000ECFF02C0ECFF03C0ECFF040E0B25E96E44
:103DA000000E0C21EA6EEF50006EEC50016EEC50EC
:103DB000010A026EEC50036EED52ED52ED5200C05E
:103DC000EFFF01C0ECFF02C0ECFF03C0ECFF0001FD
:103DD000000C040E04010C6F030E0B6F0001B8EC15
:103DE0001DF002C40CF401C40BF4040E04010E6FA8
:103DF000030E0D6F00010DEC1EF0000C0301F86BBB
:103E00000101BF53D8A403D000010FEF1FF0000140
:103E10000301F7AF03D0000146EF1FF000010101DD
:103E2000B353D8A403D0000176EF1FF00001036A5A
:103E30000101B451006E00BE0306006E036A010E5C
:103E4000026E0052D8A403D000012EEF1FF0000133
:103E5000D89002360336002E28EF1FF002500401DE
:103E6000016F03C002F4F7C304F4F6C303F402C401
:103E700006F401C405F40001C8EC18F00050D8A401
:103E800076EF1FF00352D8A476EF1FF0F5C302F4CB
:103E9000F4C301F42EEC19F002C0FAF301C0F9F3F7
:103EA00060EC19F00301F9510401016F0301FA51AB
:103EB0000401026F02C404F401C403F400017EECA7
:103EC0001AF0020E0301F9250401016F000E03012F
:103ED000FA210401026F02C404F401C403F40001D6
:103EE000D5EC1AF0010E0301F86F00010101C15376
:103EF000D8A403D0000185EF1FF000010301F7AF44
:103F000003D00001BCEF1FF000010101B553D8A49C
:103F100003D00001C0EF1FF00001036A0101B65198
:103F2000006E00BE0306006E036A010E026E0052B0
:103F3000D8A403D00001A4EF1FF00001D8900236EE
:103F40000336002E9EEF1FF002500401016F03C0E4
:103F500002F4F7C304F4F6C303F402C406F401C484
:103F600005F40001C8EC18F00050D8A4C0EF1FF011
:103F70000352D8A4C0EF1FF0010E0301F86F000137
:103F80000301F7AF03D00001C9EF1FF00001D1EF2B
:103F90001FF00101C353D8B403D0000108EF20F093
:103FA00000010101B753D8A403D0000127EF20F08E
:103FB0000001036A0101B851006E00BE0306006EE5
:103FC000036A010E026E0052D8A403D00001F0EF84
:103FD0001FF00001D89002360336002EEAEF1FF0E2
:103FE00002500401016F03C002F4F7C304F4F6C3E6
:103FF00003F402C406F401C405F40001C8EC18F08F
:104000000050D8A427EF20F00352D8A427EF20F0C7
:10401000F5C302F4F4C301F42CEC1BF002C0FCF372
:1040200001C0FBF35CEC1BF00301FB510401016FC9
:104030000301FC510401026F02C404F401C403F43F
:10404000000161EC1BF0010E0301F86F0001030198
:10405000F7AF03D0000130EF20F0000138EF20F07F
:104060000101B953D8B403D000016FEF20F0000173
:104070000101AD53D8A403D00001B4EF20F000013A
:10408000036A0101AE51006E00BE0306006E036AB2
:10409000010E026E0052D8A403D0000157EF20F0A9
:1040A0000001D89002360336002E51EF20F0025066
:1040B0000401016F03C002F4F7C304F4F6C303F470
:1040C00002C406F401C405F40001C8EC18F0005065
:1040D000D8A4B4EF20F00352D8A4B4EF20F0F5C375
:1040E00002F4F4C301F4B2EC1BF002C0FEF301C011
:1040F000FDF3DEEC1BF00301FD510401016F030130
:10410000FE510401026F02C404F401C403F400016F
:10411000A3EC1CF0C4EC1CF0020E0301FD2504010D
:10412000016F000E0301FE210401026F02C404F4BA
:1041300001C403F4000102EC1DF023EC1DF0040E99
:104140000301FD250401016F000E0301FE2104019E
:10415000026F02C404F401C403F4000161EC1DF019
:10416000010E0301F86F00010101C553D8A403D06B
:104170000001D4EF20F000010301F853D8A403D0CC
:104180000001D4EF20F00001F5C302F4F4C301F400
:1041900082EC1DF002C000F401C0FFF300C402F481
:1041A000FFC301F4E9EC1EF00301F853D8A403D0D7
:1041B0000001DFEF20F00001000EE0EF20F0010E23
:1041C000016E000C0101EF2BD8B4F02BEF5103016D
:1041D000F26FF36BF253D8B403D00001FBEF20F081
:1041E00000010301F353D8B403D00001FBEF20F02A
:1041F0000001B0EF18F00101ED53D8A403D0000185
:1042000005EF21F00001F2EC0EF00101EF51030186
:10421000F26F0101F0517F0B0301F36F010EF56F97
:10422000C80EF46FF3C3F7F3F2C3F6F30001FEEC2C
:104230001EF00152D8B420EF21F0000E21EF21F042
:10424000010E0101ED6F0001EFEC0EF02AEF21F0FD
:10425000E2EF20F07FEF23F02EEF21F0010E0101BD
:10426000266F279B1E96030E256F000124EF02F098
:104270007AEF02F001C030F19E900301F26B000171
:10428000949A94889496F2C3F3F30301F353D8B449
:1042900003D0000150EF21F00001C76A230EC66E63
:1042A0000301F32D02D004D0000100015DEF21F0E5
:1042B0000001300EC66E800EC76EC68A040E6F6E89
:1042C0006C946C886C8E6C9C6B8E6B9A6B9C6B98F0
:1042D0006C9A6B8E979A8E8A98988F888C8201013F
:1042E00029510A08D8B403D000017AEF21F0000167
:1042F00059EF22F0010128516308D8B403D000011E
:1043000085EF21F00001C8EF21F0010128510208DA
:10431000D8B403D0000190EF21F000019DEF21F00F
:104320000101282D02D004D0000100019BEF21F0F3
:10433000000159EF22F083EF23F0060E0101266FF2
:104340009D900001979A8E8A98988F888C82F5EFBD
:1043500005F00152D8B4C1EF21F0010E0101286F20
:10436000362C02D004D000010001BAEF21F0000188
:104370006CEC06F001012B6B0001C1EF22F0C6EFDF
:1043800021F0CF6A960ECE6E34EF23F034EF23F097
:10439000630E0101266F9D900001979A8E8A98986E
:1043A0008F888C820301F36B010EF46F0001D6EC51
:1043B00002F001C022F02252D8B457EF22F0979AAF
:1043C0008E9A98988F88CF500E08D8B0EAEF21F0D7
:1043D00034EF23F00F0E0301F56F0001F5C331F048
:1043E0009E903150FD08D8B0F8EF21F0FD0E316EEF
:1043F0003150CF5CD8A0F8EF21F0CEA6FDEF21F030
:10440000CECF22F022A007EF22F009EF22F0000029
:10441000000022A20EEF22F011EF22F000000000B7
:10442000000022A416EF22F01BEF22F00000000093
:104430000000000000000000CC6A9E929EA21EEFC9
:1044400022F0CCCF22F022A028EF22F02AEF22F097
:104450000000000022A22FEF22F032EF22F0000035
:104460000000000022A437EF22F03CEF22F0000011
:1044700000000000000000000000AA0E326EC950CB
:10448000206E3250C96EC7A043EF22F026C032F032
:10449000C950206E3250C96EC7A04CEF22F0326A6C
:1044A000C950206E3250C96EC7A054EF22F034EFCD
:1044B00023F0020E0101266F2A512E5CD8A003D0F2
:1044C000000175EF22F0000101012B510408D8B062
:1044D00003D0000175EF22F00001979A8E9A989808
:1044E0008F8857EC05F090EF22F0979A8E8A989873
:1044F0008F888C820A0E0301F36F010EF46F0001A6
:10450000D6EC02F001C022F02252D8B48DEF22F096
:1045100001012B6B000190EF22F001012B2B000118
:10452000010129510A08D8B403D000019BEF22F001
:10453000000134EF23F09DEF22F0030E0101266FFE
:104540001E982EBA03D00001BAEF22F00001010E2E
:104550000301F26F000189EC06F001C030F10101A6
:104560002B53D8B403D00001B8EF22F000011E880D
:10457000BFEF22F00301F26B000189EC06F0C1EFFE
:1045800022F0040E0101266F04011D6B2FC01CF4E4
:10459000010E1F6F1E6B0001DFEC07F002C02FF150
:1045A00001C02EF12E5001012E27000E2F23CF50D7
:1045B0000E08D8A003D00001E1EF22F0000134EF93
:1045C00023F0010127B103D00001FEEF22F000012A
:1045D0002FC1F3F32EC1F2F3F0EC07F001C020F08D
:1045E000202CF5EF22F00CEF23F020500208D8A485
:1045F000FCEF22F01FEF23F00AEF23F00301F36B2F
:10460000F26B0001F0EC07F00152D8B40AEF23F08E
:104610001FEF23F034EF23F0050E0101266FCF507A
:104620001708D8A003D0000119EF23F0000134EFE0
:1046300023F0F0EF08F0F8EF0AF034EF23F0080E63
:104640000101266FCF501708D8A003D000012CEF2E
:1046500023F0000134EF23F0EFEF15F00152D8A45E
:1046600032EF23F034EF23F0140E0101266F000126
:10467000979A8E8A98988F888C82326AC950206E59
:104680003250C96E6B9E8B9AC69A979A8E9A98985A
:104690008F9801012C2BD8B42D2B000117EC0FF0B3
:1046A0000101282D02D004D00001000166EF23F0A3
:1046B000000101012B510708D8A003D0000166EFCB
:1046C00023F00001020E0101286F00011EA86BEF0C
:1046D00023F0FBEF17F09E90010127BF03D00001EC
:1046E00076EF23F000019D8078EF23F03EEC0EF092
:1046F0006CEC06F01EB27FEF23F028EF21F0000EE5
:10470000016E89EF23F00A0E0101266F000134EFDC
:1047100023F09E902EEF00F0C26A0D0EC16E060EC1
:10472000C06ED7EF3AF00101F3510001D8B4A3EF06
:1047300023F0010AD8B4BBEF23F0030AD8B4D3EFB7
:1047400023F0E4EF23F0EF0E926E806AFF0E936E7B
:10475000816AD30E946E826A730E956E0C0E836E10
:10476000CC0E966E846A0B0E976E856AE40E986E78
:10477000866AE4EF23F0D30E926E806AFF0E936E8A
:10478000816AC30E946E826A020E956E840E836EE9
:104790000C0E966E846A1A0E976E856AE40E986EF9
:1047A000866AE4EF23F0FF0E926E806E936E816E48
:1047B000946E826E956E836E966E846E976E856E25
:1047C000986E866EE4EF23F0010E016EDCEF3AF096
:1047D0000101F551F90FD8A003D0000110EF24F02A
:1047E000070F000111EF24F00F0EC16E10EF24F03F
:1047F0000E0EC16E10EF24F00D0EC16E10EF24F0FE
:104800000C0EC16E10EF24F00B0EC16E10EF24F0F1
:104810000A0EC16E10EF24F0090EC16E10EF24F0E5
:10482000000CF2CF0EF0F29EE8244D0FF66E480E0B
:10483000F76ED8B0F72A000EF86EFB6E0A00F5503E
:10484000FA6E0800F5500EBEF28EF96EE847F0479A
:10485000F8470048084810481848C150F00B0101BB
:10486000F46FF351FB0FD8A003D0000164EF24F0E4
:10487000050F000165EF24F0020E0101F56F000144
:10488000E8EC23F064EF24F0030E0101F56F000162
:10489000E8EC23F064EF24F0040E0101F56F000151
:1048A000E8EC23F064EF24F0050E0101F56F000140
:1048B000E8EC23F064EF24F0060E0101F56F00012F
:1048C000E8EC23F064EF24F0000CF2CF0EF0F29E3F
:1048D000E824F50FF66E480EF76ED8B0F72A000EF2
:1048E000F86EFB6E0A00F550FA6E0800F5500EBE29
:1048F000F28EF96E784888489848A848B8488C8E57
:104900008AEF24F08C86C00EF2128DEF24F0959E73
:104910007FEF24F0959682EF24F00401156B640E6E
:10492000146F0001040114511511D8A403D0000123
:10493000E7EF24F00001FA0E0401176F000117C41D
:1049400034F0020E345E00000000000000000000A1
:104950000000342EA7EF24F0FA0E0401176F0001B7
:1049600017C434F0020E345E0000000000000000A6
:1049700000000000342EB8EF24F0FA0E0401176F87
:10498000000117C434F0020E345E00000000000085
:10499000000000000000342EC9EF24F0FA0E0401DC
:1049A000176F000117C434F0020E345E00000000DF
:1049B0000000000000000000342EDAEF24F00401B3
:1049C0001451D8B415071407000192EF24F0FF0E1C
:1049D0001D6E1C6E1B6E1A6E010E1F6E1E80E3EFA5
:1049E0003AF08D96000C9696F1EC24F0140E356E8C
:1049F000000E016EE5EF3AF08E0E006E0BC201F074
:104A00000AC202F0036A0152D8A413EF25F002C0D3
:104A100001F0026A080E005E0152D8A413EF25F0DF
:104A2000006A1DEF25F0D89001BE1CEF25F002367C
:104A30000136000613EF25F0019E000C0201125111
:104A4000D8A403D000017CEF26F01E6F1651D8A425
:104A500003D000017CEF26F01E5FD8A003D0000138
:104A600035EF25F0000140EF25F07F0E02011E27F3
:104A7000D8A003D000017CEF26F000014EEF25F016
:104A8000810E02011E5FD8B003D000017CEF26F03A
:104A9000D8A403D000017CEF26F000011EC200F074
:104AA000016A026A036A02011D6B13C21CF21C8FA9
:104AB00014C21BF215C21AF2190E1E6F0001020178
:104AC00019511A5FD8A003D0000182EF25F0010E22
:104AD0001B5FD8A003D0000182EF25F01C5FD8A097
:104AE00003D0000182EF25F01D5FD8A003D00001A4
:104AF00082EF25F01D2B1C2B1B2B19511A270001AF
:104B0000DCEF25F0020118511B5FD8A003D0000193
:104B1000B6EF25F0010E1C5FD8A003D00001B6EF60
:104B200025F01D5FD8A003D00001B6EF25F00001ED
:104B300002011D2B1C2B18511B27000102011951CA
:104B40001A27D8B003D00001DCEF25F01B2BD8B416
:104B500003D00001DCEF25F01C2BD8B403D00001FA
:104B6000DCEF25F01D2B0001DCEF25F002011751D1
:104B700080091C5FD8A003D00001DBEF25F0010EF7
:104B80001D5FD8A003D00001DBEF25F01D2B1751CE
:104B900080091C2718511B27D8B003D000019EEFB5
:104BA00025F01C2BD8B403D000019EEF25F01D2B5F
:104BB00000019EEF25F0038002011E2F02D004D0D9
:104BC00000010001E7EF25F00001F5EF25F0D89096
:104BD00002011A371B371C371D37D89003360236AF
:104BE00001361F3700015FEF25F002011FB103D02E
:104BF000000103EF26F0D8900132023203321F3356
:104C0000000107EF26F00006D8B47CEF26F0020181
:104C10001FAF03D0000158EF26F0D8901A371B378A
:104C20001C371D370001020119511A5FD8A003D0AB
:104C300000012FEF26F0010E1B5FD8A003D000016A
:104C40002FEF26F01C5FD8A003D000012FEF26F035
:104C50001D5FD8B003D000016BEF26F00001020108
:104C600018511B5FD8A003D0000145EF26F0010EBC
:104C70001C5FD8A003D0000145EF26F01D5FD8B01F
:104C800003D000016BEF26F00001020117518009EB
:104C9000000102011C5FD8A003D0000158EF26F0EC
:104CA000010E1D5FD8B003D000016BEF26F00001AC
:104CB000032AD8A46BEF26F0022AD8A46BEF26F0C3
:104CC000012AD8A46BEF26F0002AD8B47CEF26F096
:104CD00001320232033213C21EF2020117511E1BAF
:104CE0001EBF03D0000179EF26F0018E000180EF96
:104CF00026F0019E80EF26F0006A016A026A036ACC
:104D0000000C8E0E006E02011251005E13C202F002
:104D100014C201F0028E0052D8A403D00001A0EF0B
:104D200026F00001D8900252D8A49BEF26F0015241
:104D3000D8B4A0EF26F002320132002E92EF26F016
:104D4000020113BF03D00001ACEF26F00001011EE9
:104D5000021E012AD8B4022A000C02010E51D8A466
:104D600003D000014DEF27F0006E1251D8A403D0FC
:104D700000014DEF27F00026D8B003D00001C9EFA5
:104D800026F00001810E0026D8B04DEF27F0D1EFBC
:104D900026F07F0E005ED8A04DEF27F0D8B44DEF7F
:104DA00027F00FC216F202011351161B0F8F138F3B
:104DB00011511503F4CF18F210511403F4CF03F07E
:104DC000F3CF17F21503F3501827F4501723000EF2
:104DD000032211511403F3501827F4501723000E27
:104DE000026A032202220F511503F3501727F450D1
:104DF0000322000E02220F511403F3500326F45035
:104E00000222000E016A012211511303F3501727E9
:104E1000F4500322000E0222012210511303F3501A
:104E20000326F4500222000E01220F511303F35007
:104E30000226F4500122002A01AE03D0000127EF20
:104E400027F0173703360236013600060001000E40
:104E5000020117BF03D0000145EF27F0032A022209
:104E600001220150D8B403D0000145EF27F00250D1
:104E7000D8B403D0000145EF27F00350D8B403D0D5
:104E8000000145EF27F0002A0001020116BF018E44
:104E900016AF019E000151EF27F0006A016A026A15
:104EA000036ABFEF27F0F5C10BF2F4C10AF2FCEC84
:104EB00024F003C001F202C000F201C0FFF100C003
:104EC000FEF1F7C10BF2F6C10AF2FCEC24F003C0CC
:104ED00005F202C004F201C003F200C002F20201B6
:104EE000156B240E146F740E136F920E126F01C2A5
:104EF00019F200C218F2FFC117F2FEC116F200014A
:104F00001EEC25F003C009F202C008F201C007F24E
:104F100000C006F209C215F208C214F207C213F269
:104F200006C212F281EC26F002C0FBF101C0FAF1D8
:104F3000036A35500101FA5F0350FB5BF7C10BF2C6
:104F4000F6C10AF20001FCEC24F000C00AF201C034
:104F50000BF202C00CF203C00DF20DC211F20CC232
:104F600010F20BC20FF20AC20EF201C215F200C219
:104F700014F2FFC113F2FEC112F2ADEF26F000C031
:104F80000EF201C00FF202C010F203C011F211C202
:104F900015F210C214F20FC213F20EC212F2020185
:104FA000196B186B7A0E176F880E166F00011EECC6
:104FB00025F003C015F202C014F201C013F200C0C4
:104FC00012F281EC26F002C0FDF101C0FCF10101FA
:104FD000F96BF86B00010101F951FD5DD8B003D008
:104FE000000130EF28F00001D8A400EF28F0010103
:104FF000FC51F85DD8A003D0000130EF28F000018B
:105000008D8635C017F417C434F0020E345E0000EC
:1050100000000000000000000000342E0BEF28F01C
:105020008D96FBC10BF2FAC10AF2030E02010A5F70
:10503000000E0B5B0AC234F00B51036A336E332A45
:10504000000100000000342E21EF28F0332E23EF62
:1050500028F00101F82BD8B4F92B0001EBEF27F071
:10506000F1EC24F0000C010E0101F35DFB0FD8A060
:1050700003D00001A8EF3AF0050F0001AAEF3AF0C3
:105080000C0E0101F56F3F0EF46FF76B460EF66FD5
:10509000000153EC27F0080E0101F56F2D0EF46F9F
:1050A000F76B500EF66F000153EC27F00401156BFF
:1050B000140E146F0001040114511511D8A403D06B
:1050C0000001B0EF28F00001FA0E0401176F000193
:1050D00017C434F0020E345E00000000000000002F
:1050E00000000000342E70EF28F0FA0E0401176F54
:1050F000000117C434F0020E345E0000000000000E
:10510000000000000000342E81EF28F0FA0E0401A8
:10511000176F000117C434F0020E345E0000000067
:105120000000000000000000342E92EF28F0FA0E7C
:105130000401176F000117C434F0020E345E000042
:1051400000000000000000000000342EA3EF28F053
:1051500004011451D8B41507140700015BEF28F0BF
:10516000080E0101F56F2D0EF46FF76B640EF66FEC
:10517000000153EC27F0090E0101F56F2D0EF46FBD
:10518000F76BC80EF66F000153EC27F00401156BA6
:10519000640E146F0001040114511511D8A403D03A
:1051A000000120EF29F00001FA0E0401176F000141
:1051B00017C434F0020E345E00000000000000004E
:1051C00000000000342EE0EF28F0FA0E0401176F03
:1051D000000117C434F0020E345E0000000000002D
:1051E000000000000000342EF1EF28F0FA0E040158
:1051F000176F000117C434F0020E345E0000000087
:105200000000000000000000342E02EF29F0FA0E2A
:105210000401176F000117C434F0020E345E000061
:1052200000000000000000000000342E13EF29F001
:1052300004011451D8B4150714070001CBEF28F06E
:10524000090E0101F56F2D0EF46F010EF76F900E30
:10525000F66F000153EC27F0A8EF3AF0040E0101BD
:10526000F56F160EF46FF76B640EF66F000153ECDA
:1052700027F0040E0101F56F960EF46FF76B640EC4
:10528000F66F000153EC27F0050E0101F56F260EB5
:10529000F46FF76B640EF66F000153EC27F0050E08
:1052A0000101F56F740EF46FF76B640EF66F000179
:1052B00053EC27F0060E0101F56F1F0EF46FF76B2C
:1052C000960EF66F000153EC27F00401156B320EB9
:1052D000146F0001040114511511D8A403D000016A
:1052E000BFEF29F00001FA0E0401176F000117C487
:1052F00034F0020E345E00000000000000000000E8
:105300000000342E7FEF29F0FA0E0401176F000120
:1053100017C434F0020E345E0000000000000000EC
:1053200000000000342E90EF29F0FA0E0401176FF0
:10533000000117C434F0020E345E000000000000CB
:10534000000000000000342EA1EF29F0FA0E040145
:10535000176F000117C434F0020E345E0000000025
:105360000000000000000000342EB2EF29F004011C
:105370001451D8B41507140700016AEF29F0060E7E
:105380000101F56F1F0EF46FF76B960EF66F0001BB
:1053900053EC27F00401156B320E146F0001040169
:1053A00014511511D8A403D0000124EF2AF00001F4
:1053B000FA0E0401176F000117C434F0020E345EB8
:1053C000000000000000000000000000342EE4EFA8
:1053D00029F0FA0E0401176F000117C434F0020E11
:1053E000345E000000000000000000000000342EC9
:1053F000F5EF29F0FA0E0401176F000117C434F01D
:10540000020E345E000000000000000000000000FA
:10541000342E06EF2AF0FA0E0401176F000117C4AC
:1054200034F0020E345E00000000000000000000B6
:105430000000342E17EF2AF004011451D8B41507D8
:1054400014070001CFEF29F0060E0101F56FE00E01
:10545000F46FF76B320EF66F000153EC27F0040186
:10546000156B320E146F0001040114511511D8A4EC
:1054700003D0000189EF2AF00001FA0E0401176F32
:10548000000117C434F0020E345E0000000000007A
:10549000000000000000342E49EF2AF0FA0E04014B
:1054A000176F000117C434F0020E345E00000000D4
:1054B0000000000000000000342E5AEF2AF0FA0E1F
:1054C0000401176F000117C434F0020E345E0000AF
:1054D00000000000000000000000342E6BEF2AF0F6
:1054E000FA0E0401176F000117C434F0020E345E87
:1054F000000000000000000000000000342E7CEFDF
:105500002AF004011451D8B415071407000134EF30
:105510002AF0060E0101F56FE00EF46FF76B320E04
:10552000F66F000153EC27F00401156B320E146F77
:105530000001040114511511D8A403D00001EEEFAD
:105540002AF00001FA0E0401176F000117C434F0AD
:10555000020E345E000000000000000000000000A9
:10556000342EAEEF2AF0FA0E0401176F000117C4B3
:1055700034F0020E345E0000000000000000000065
:105580000000342EBFEF2AF0FA0E0401176F00015D
:1055900017C434F0020E345E00000000000000006A
:1055A00000000000342ED0EF2AF0FA0E0401176F2D
:1055B000000117C434F0020E345E00000000000049
:1055C000000000000000342EE1EF2AF00401145125
:1055D000D8B415071407000199EF2AF0060E01014F
:1055E000F56FE00EF46FF76B320EF66F000153ECBF
:1055F00027F00401156B320E146F000104011451E1
:105600001511D8A403D0000153EF2BF00001FA0EBE
:105610000401176F000117C434F0020E345E00005D
:1056200000000000000000000000342E13EF2BF0FB
:10563000FA0E0401176F000117C434F0020E345E35
:10564000000000000000000000000000342E24EFE5
:105650002BF0FA0E0401176F000117C434F0020E8C
:10566000345E000000000000000000000000342E46
:1056700035EF2BF0FA0E0401176F000117C434F058
:10568000020E345E00000000000000000000000078
:10569000342E46EF2BF004011451D8B4150714072B
:1056A0000001FEEF2AF0060E0101F56FE00EF46F27
:1056B000F76B320EF66F000153EC27F00401156B07
:1056C000320E146F0001040114511511D8A403D037
:1056D0000001B8EF2BF00001FA0E0401176F000172
:1056E00017C434F0020E345E000000000000000019
:1056F00000000000342E78EF2BF0FA0E0401176F33
:10570000000117C434F0020E345E000000000000F7
:10571000000000000000342E89EF2BF0FA0E040187
:10572000176F000117C434F0020E345E0000000051
:105730000000000000000000342E9AEF2BF0FA0E5B
:105740000401176F000117C434F0020E345E00002C
:1057500000000000000000000000342EABEF2BF032
:1057600004011451D8B415071407000163EF2BF09E
:10577000060E0101F56F1F0EF46F010EF76F900E0C
:10578000F66F000153EC27F0060E0101F56FE00EF5
:10579000F46FF76B320EF66F000153EC27F0040143
:1057A000156B320E146F0001040114511511D8A4A9
:1057B00003D0000129EF2CF00001FA0E0401176F4D
:1057C000000117C434F0020E345E00000000000037
:1057D000000000000000342EE9EF2BF0FA0E040167
:1057E000176F000117C434F0020E345E0000000091
:1057F0000000000000000000342EFAEF2BF0FA0E3B
:105800000401176F000117C434F0020E345E00006B
:1058100000000000000000000000342E0BEF2CF010
:10582000FA0E0401176F000117C434F0020E345E43
:10583000000000000000000000000000342E1CEFFB
:105840002CF004011451D8B4150714070001D4EF4B
:105850002BF0060E0101F56FE00EF46FF76B320EC0
:10586000F66F000153EC27F00401156B320E146F34
:105870000001040114511511D8A403D000018EEFCA
:105880002CF00001FA0E0401176F000117C434F068
:10589000020E345E00000000000000000000000066
:1058A000342E4EEF2CF0FA0E0401176F000117C4CE
:1058B00034F0020E345E0000000000000000000022
:1058C0000000342E5FEF2CF0FA0E0401176F000178
:1058D00017C434F0020E345E000000000000000027
:1058E00000000000342E70EF2CF0FA0E0401176F48
:1058F000000117C434F0020E345E00000000000006
:10590000000000000000342E81EF2CF0040114513F
:10591000D8B415071407000139EF2CF0060E010169
:10592000F56FE00EF46FF76B320EF66F000153EC7B
:1059300027F00401156B320E146F0001040114519D
:105940001511D8A403D00001F3EF2CF00001FA0EDA
:105950000401176F000117C434F0020E345E00001A
:1059600000000000000000000000342EB3EF2CF017
:10597000FA0E0401176F000117C434F0020E345EF2
:10598000000000000000000000000000342EC4EF02
:105990002CF0FA0E0401176F000117C434F0020E48
:1059A000345E000000000000000000000000342E03
:1059B000D5EF2CF0FA0E0401176F000117C434F074
:1059C000020E345E00000000000000000000000035
:1059D000342EE6EF2CF004011451D8B41507140747
:1059E00000019EEF2CF0060E0101F56FE00EF46F42
:1059F000F76B320EF66F000153EC27F00401156BC4
:105A0000320E146F0001040114511511D8A403D0F3
:105A1000000158EF2DF00001FA0E0401176F00018C
:105A200017C434F0020E345E0000000000000000D5
:105A300000000000342E18EF2DF0FA0E0401176F4D
:105A4000000117C434F0020E345E000000000000B4
:105A5000000000000000342E29EF2DF0FA0E0401A2
:105A6000176F000117C434F0020E345E000000000E
:105A70000000000000000000342E3AEF2DF0FA0E76
:105A80000401176F000117C434F0020E345E0000E9
:105A900000000000000000000000342E4BEF2DF04D
:105AA00004011451D8B415071407000103EF2DF0B9
:105AB000060E0101F56F1F0EF46F010EF76F900EC9
:105AC000F66F000153EC27F0050E0101F56F740E1F
:105AD000F46FF76B320EF66F000153EC27F0040100
